{
  "contractName": "CreateParty",
  "abi": [
    {
      "inputs": [],
      "stateMutability": "nonpayable",
      "type": "constructor"
    },
    {
      "anonymous": false,
      "inputs": [
        {
          "indexed": true,
          "internalType": "address",
          "name": "previousOwner",
          "type": "address"
        },
        {
          "indexed": true,
          "internalType": "address",
          "name": "newOwner",
          "type": "address"
        }
      ],
      "name": "OwnershipTransferred",
      "type": "event"
    },
    {
      "inputs": [],
      "name": "devFee",
      "outputs": [
        {
          "internalType": "uint256",
          "name": "",
          "type": "uint256"
        }
      ],
      "stateMutability": "view",
      "type": "function"
    },
    {
      "inputs": [],
      "name": "devWallet",
      "outputs": [
        {
          "internalType": "address",
          "name": "",
          "type": "address"
        }
      ],
      "stateMutability": "view",
      "type": "function"
    },
    {
      "inputs": [],
      "name": "feeDivisor",
      "outputs": [
        {
          "internalType": "uint256",
          "name": "",
          "type": "uint256"
        }
      ],
      "stateMutability": "view",
      "type": "function"
    },
    {
      "inputs": [],
      "name": "liquidityFee",
      "outputs": [
        {
          "internalType": "uint256",
          "name": "",
          "type": "uint256"
        }
      ],
      "stateMutability": "view",
      "type": "function"
    },
    {
      "inputs": [],
      "name": "liquidityWallet",
      "outputs": [
        {
          "internalType": "address",
          "name": "",
          "type": "address"
        }
      ],
      "stateMutability": "view",
      "type": "function"
    },
    {
      "inputs": [],
      "name": "owner",
      "outputs": [
        {
          "internalType": "address",
          "name": "",
          "type": "address"
        }
      ],
      "stateMutability": "view",
      "type": "function"
    },
    {
      "inputs": [],
      "name": "renounceOwnership",
      "outputs": [],
      "stateMutability": "nonpayable",
      "type": "function"
    },
    {
      "inputs": [],
      "name": "token",
      "outputs": [
        {
          "internalType": "contract IERC20",
          "name": "",
          "type": "address"
        }
      ],
      "stateMutability": "view",
      "type": "function"
    },
    {
      "inputs": [],
      "name": "tokenAddress",
      "outputs": [
        {
          "internalType": "address",
          "name": "",
          "type": "address"
        }
      ],
      "stateMutability": "view",
      "type": "function"
    },
    {
      "inputs": [
        {
          "internalType": "address",
          "name": "newOwner",
          "type": "address"
        }
      ],
      "name": "transferOwnership",
      "outputs": [],
      "stateMutability": "nonpayable",
      "type": "function"
    },
    {
      "inputs": [],
      "name": "getInitialPrice",
      "outputs": [
        {
          "internalType": "uint256",
          "name": "",
          "type": "uint256"
        }
      ],
      "stateMutability": "view",
      "type": "function"
    },
    {
      "inputs": [
        {
          "internalType": "uint256",
          "name": "_newPrice",
          "type": "uint256"
        }
      ],
      "name": "setInitialPrice",
      "outputs": [],
      "stateMutability": "nonpayable",
      "type": "function"
    },
    {
      "inputs": [],
      "name": "getAdditionalPrice",
      "outputs": [
        {
          "internalType": "uint256",
          "name": "",
          "type": "uint256"
        }
      ],
      "stateMutability": "view",
      "type": "function"
    },
    {
      "inputs": [
        {
          "internalType": "uint256",
          "name": "_newPrice",
          "type": "uint256"
        }
      ],
      "name": "setAdditionalPrice",
      "outputs": [],
      "stateMutability": "nonpayable",
      "type": "function"
    },
    {
      "inputs": [
        {
          "internalType": "uint256",
          "name": "tokenAmount",
          "type": "uint256"
        }
      ],
      "name": "transferToken",
      "outputs": [
        {
          "internalType": "bool",
          "name": "",
          "type": "bool"
        }
      ],
      "stateMutability": "nonpayable",
      "type": "function"
    },
    {
      "inputs": [
        {
          "internalType": "address",
          "name": "_addr",
          "type": "address"
        }
      ],
      "name": "setDevWallet",
      "outputs": [],
      "stateMutability": "nonpayable",
      "type": "function"
    },
    {
      "inputs": [
        {
          "internalType": "address",
          "name": "_addr",
          "type": "address"
        }
      ],
      "name": "setLiquidityWallet",
      "outputs": [],
      "stateMutability": "nonpayable",
      "type": "function"
    },
    {
      "inputs": [
        {
          "internalType": "uint256",
          "name": "_newFee",
          "type": "uint256"
        }
      ],
      "name": "setDevFee",
      "outputs": [],
      "stateMutability": "nonpayable",
      "type": "function"
    },
    {
      "inputs": [
        {
          "internalType": "uint256",
          "name": "_newFee",
          "type": "uint256"
        }
      ],
      "name": "setLiquidityFee",
      "outputs": [],
      "stateMutability": "nonpayable",
      "type": "function"
    }
  ],
  "bytecode": "0x60806040526127106001556109c4600255611d4c600355600480546001600160a01b031990811673c32ee58c13b4346227f6d10e4307541d13df81d71790915560058054821673eeead7f13da21164c7eebce08d6f436318e06a8017905567a688906bd8b00000600655674563918244f400006007556009805490911673670568763731f1cd604c7611907878f1b4956b4d1790553480156100a057600080fd5b506100b16100ac6100d8565b6100dc565b600954600880546001600160a01b0319166001600160a01b0390921691909117905561012c565b3390565b600080546001600160a01b038381166001600160a01b0319831681178455604051919092169283917f8be0079c531659141344cd1fd0a4f28419497f9722a3daafe3b4186f6b6457e09190a35050565b610b298061013b6000396000f3fe608060405234801561001057600080fd5b50600436106101215760003560e01c80638da5cb5b116100ad5780639f4ba0ee116100715780639f4ba0ee146101f25780639fc71b3114610205578063d469801614610225578063f2fde38b1461022d578063fc0c546a1461024057610121565b80638da5cb5b146101bd5780638ea5220f146101d257806398118cb4146101da5780639a36f932146101e25780639d76ea58146101ea57610121565b8063296f0a0c116100f4578063296f0a0c14610174578063357bf15c14610187578063593b51081461019a5780636827e764146101ad578063715018a6146101b557610121565b806306f660ef14610126578063075026d0146101445780631c75b6b21461014c5780631f53ac0214610161575b600080fd5b61012e610248565b60405161013b9190610a9f565b60405180910390f35b61012e61024e565b61015f61015a36600461092c565b610254565b005b61015f61016f3660046108de565b6102c3565b61015f6101823660046108de565b61034a565b61015f61019536600461092c565b6103d1565b61015f6101a836600461092c565b610437565b61012e61047b565b61015f610481565b6101c56104cc565b60405161013b9190610944565b6101c56104db565b61012e6104ea565b61012e6104f0565b6101c56104f6565b61015f61020036600461092c565b610505565b61021861021336600461092c565b610549565b60405161013b9190610995565b6101c56107fb565b61015f61023b3660046108de565b61080a565b6101c561087b565b60065490565b60075490565b61025c61088a565b6001600160a01b031661026d6104cc565b6001600160a01b03161461029c5760405162461bcd60e51b815260040161029390610a15565b60405180910390fd5b6109c48111156102be5760405162461bcd60e51b8152600401610293906109e6565b600255565b6102cb61088a565b6001600160a01b03166102dc6104cc565b6001600160a01b0316146103025760405162461bcd60e51b815260040161029390610a15565b6001600160a01b0381166103285760405162461bcd60e51b815260040161029390610a4a565b600480546001600160a01b0319166001600160a01b0392909216919091179055565b61035261088a565b6001600160a01b03166103636104cc565b6001600160a01b0316146103895760405162461bcd60e51b815260040161029390610a15565b6001600160a01b0381166103af5760405162461bcd60e51b815260040161029390610a4a565b600580546001600160a01b0319166001600160a01b0392909216919091179055565b6103d961088a565b6001600160a01b03166103ea6104cc565b6001600160a01b0316146104105760405162461bcd60e51b815260040161029390610a15565b611d4c8111156104325760405162461bcd60e51b815260040161029390610a70565b600355565b61043f61088a565b6001600160a01b03166104506104cc565b6001600160a01b0316146104765760405162461bcd60e51b815260040161029390610a15565b600755565b60025481565b61048961088a565b6001600160a01b031661049a6104cc565b6001600160a01b0316146104c05760405162461bcd60e51b815260040161029390610a15565b6104ca600061088e565b565b6000546001600160a01b031690565b6004546001600160a01b031681565b60035481565b60015481565b6009546001600160a01b031681565b61050d61088a565b6001600160a01b031661051e6104cc565b6001600160a01b0316146105445760405162461bcd60e51b815260040161029390610a15565b600655565b6000806001546002548461055d9190610ac8565b6105679190610aa8565b905060006001546003548561057c9190610ac8565b6105869190610aa8565b6004549091506001600160a01b0316158015906105a35750600082115b156106bc576008546004805460405163095ea7b360e01b81526001600160a01b039384169363095ea7b3936105de939091169187910161097c565b602060405180830381600087803b1580156105f857600080fd5b505af115801561060c573d6000803e3d6000fd5b505050506040513d601f19601f82011682018060405250810190610630919061090c565b50600854600480546040516323b872dd60e01b81526001600160a01b03938416936323b872dd93610668933393921691889101610958565b602060405180830381600087803b15801561068257600080fd5b505af1158015610696573d6000803e3d6000fd5b505050506040513d601f19601f820116820180604052508101906106ba919061090c565b505b6005546001600160a01b0316158015906106d65750600081115b156107f15760085460055460405163095ea7b360e01b81526001600160a01b039283169263095ea7b39261071192911690859060040161097c565b602060405180830381600087803b15801561072b57600080fd5b505af115801561073f573d6000803e3d6000fd5b505050506040513d601f19601f82011682018060405250810190610763919061090c565b506008546005546040516323b872dd60e01b81526001600160a01b03928316926323b872dd9261079d923392909116908690600401610958565b602060405180830381600087803b1580156107b757600080fd5b505af11580156107cb573d6000803e3d6000fd5b505050506040513d601f19601f820116820180604052508101906107ef919061090c565b505b5060019392505050565b6005546001600160a01b031681565b61081261088a565b6001600160a01b03166108236104cc565b6001600160a01b0316146108495760405162461bcd60e51b815260040161029390610a15565b6001600160a01b03811661086f5760405162461bcd60e51b8152600401610293906109a0565b6108788161088e565b50565b6008546001600160a01b031681565b3390565b600080546001600160a01b038381166001600160a01b0319831681178455604051919092169283917f8be0079c531659141344cd1fd0a4f28419497f9722a3daafe3b4186f6b6457e09190a35050565b6000602082840312156108ef578081fd5b81356001600160a01b0381168114610905578182fd5b9392505050565b60006020828403121561091d578081fd5b81518015158114610905578182fd5b60006020828403121561093d578081fd5b5035919050565b6001600160a01b0391909116815260200190565b6001600160a01b039384168152919092166020820152604081019190915260600190565b6001600160a01b03929092168252602082015260400190565b901515815260200190565b60208082526026908201527f4f776e61626c653a206e6577206f776e657220697320746865207a65726f206160408201526564647265737360d01b606082015260800190565b6020808252601590820152745461782063616e2774206265206f7665722032352560581b604082015260600190565b6020808252818101527f4f776e61626c653a2063616c6c6572206973206e6f7420746865206f776e6572604082015260600190565b6020808252600c908201526b5a65726f204164647265737360a01b604082015260600190565b6020808252601590820152745461782063616e2774206265206f7665722037352560581b604082015260600190565b90815260200190565b600082610ac357634e487b7160e01b81526012600452602481fd5b500490565b6000816000190483118215151615610aee57634e487b7160e01b81526011600452602481fd5b50029056fea2646970667358221220143a1988b1b8a8e00e2ebe8dad871b902e1bb6d4a5ed9e8d5bf068636de88e2564736f6c63430008010033",
  "immutableReferences": {},
  "source": "pragma solidity ^0.8.0;\r\n\r\nimport \"@openzeppelin/contracts/token/ERC20/IERC20.sol\";\r\nimport \"@openzeppelin/contracts/access/Ownable.sol\";\r\nimport \"@openzeppelin/contracts/utils/math/SafeMath.sol\";\r\nimport \"@openzeppelin/contracts/utils/Counters.sol\";\r\n\r\ncontract CreateParty is Ownable {\r\n    using SafeMath for uint256;\r\n\r\n    uint256 public feeDivisor = 10000;\r\n    uint256 public devFee = 2500;\r\n    uint256 public liquidityFee = 7500;\r\n\r\n    address public devWallet = address(0xC32EE58C13B4346227F6D10e4307541d13df81d7);\r\n    address public liquidityWallet = address(0xEeeAd7f13da21164C7eEBce08D6f436318E06A80);\r\n\r\n    uint256 private _priceInitial = 12000000000000000000;\r\n    uint256 private _pricePerToken = 5000000000000000000;\r\n\r\n    IERC20 public token;\r\n    address public tokenAddress = address(0x670568763731F1cd604c7611907878F1B4956B4d);\r\n\r\n    constructor() {\r\n        IERC20 _token = IERC20(tokenAddress);\r\n        token = _token;\r\n    }\r\n\r\n    function getInitialPrice() public view returns (uint256) {\r\n        return _priceInitial;\r\n    }\r\n\r\n    function setInitialPrice(uint256 _newPrice) external onlyOwner {\r\n        _priceInitial = _newPrice;\r\n    }\r\n\r\n    function getAdditionalPrice() public view returns (uint256) {\r\n        return _pricePerToken;\r\n    }\r\n\r\n    function setAdditionalPrice(uint256 _newPrice) external onlyOwner {\r\n        _pricePerToken = _newPrice;\r\n    }\r\n\r\n    function transferToken(uint256 tokenAmount) public returns (bool) {\r\n        uint256 devFeePrice = tokenAmount * devFee / feeDivisor;\r\n        uint256 liquidityFeePrice = tokenAmount * liquidityFee / feeDivisor;\r\n\r\n        if(devWallet != address(0) && devFeePrice > 0) {\r\n            token.approve(devWallet, devFeePrice);\r\n            token.transferFrom(msg.sender, devWallet, devFeePrice);\r\n        }\r\n\r\n        if(liquidityWallet != address(0) && liquidityFeePrice > 0) {\r\n            token.approve(liquidityWallet, liquidityFeePrice);\r\n            token.transferFrom(msg.sender, liquidityWallet, liquidityFeePrice);\r\n        }\r\n        \r\n        return true;\r\n    }\r\n\r\n    function setDevWallet(address _addr) external onlyOwner {\r\n        require(_addr != address(0), \"Zero Address\");\r\n        devWallet = _addr;\r\n    }\r\n\r\n    function setLiquidityWallet(address _addr) external onlyOwner {\r\n        require(_addr != address(0), \"Zero Address\");\r\n        liquidityWallet = _addr;\r\n    }\r\n\r\n    function setDevFee(uint256 _newFee) external onlyOwner {\r\n        require(_newFee <= 2500, \"Tax can't be over 25%\");\r\n        devFee = _newFee;\r\n    }\r\n\r\n    function setLiquidityFee(uint256 _newFee) external onlyOwner {\r\n        require(_newFee <= 7500, \"Tax can't be over 75%\");\r\n        liquidityFee = _newFee;\r\n    }\r\n}",
  "sourcePath": "E:\\DMNL\\Ragnarok\\Ragnarok\\contracts\\CreateParty.sol",
  "compiler": {
    "name": "solc",
    "version": "0.8.1+commit.df193b15.Emscripten.clang"
  },
  "schemaVersion": "3.4.5",
  "updatedAt": "2022-04-25T17:11:57.422Z",
  "devdoc": {
    "kind": "dev",
    "methods": {
      "owner()": {
        "details": "Returns the address of the current owner."
      },
      "renounceOwnership()": {
        "details": "Leaves the contract without owner. It will not be possible to call `onlyOwner` functions anymore. Can only be called by the current owner. NOTE: Renouncing ownership will leave the contract without an owner, thereby removing any functionality that is only available to the owner."
      },
      "transferOwnership(address)": {
        "details": "Transfers ownership of the contract to a new account (`newOwner`). Can only be called by the current owner."
      }
    },
    "version": 1
  },
  "userdoc": {
    "kind": "user",
    "methods": {},
    "version": 1
  }
}